:020000040000FA
:1000000070C30720A9020000B1020000B302000083
:10001000B5020000B7020000B902000000000000B5
:100020000000000000000000000000006901000066
:10003000BD02000000000000AD010000131500002B
:10004000C3020000C3020000C3020000C30200009C
:10005000C3020000C3020000C3020000C30200008C
:10006000C3020000C3020000C3020000C30200007C
:10007000C3020000C3020000C3020000C30200006C
:10008000C3020000C3020000C3020000C30200005C
:10009000C3020000C3020000C3020000C30200004C
:1000A000C3020000C3020000C3020000C30200003C
:1000B000C3020000C3020000C3020000C30200002C
:1000C000C3020000C3020000C302000000F002F8F7
:1000D00000F03AF80AA090E8000C82448344AAF1A8
:1000E0000107DA4501D100F02FF8AFF2090EBAE8A6
:1000F0000F0013F0010F18BFFB1A43F0010318475C
:1001000094180000C4180000103A24BF78C878C1C1
:10011000FAD8520724BF30C830C144BF04680C600D
:10012000704700000023002400250026103A28BF55
:1001300078C1FBD8520728BF30C148BF0B60704759
:100140001FB51FBD10B510BD01F0F3FB1146FFF741
:10015000F7FF00F088F800F0C8F803B4FFF7F2FFEB
:1001600003BC01F00FFC0000224B19680868B0E8DE
:10017000F00F80F30988BFF36F8F4FF0000080F31A
:1001800011884EF00D0E7047000000000648006810
:10019000006880F3088862B661B6BFF34F8FBFF383
:1001A0006F8F00DF00BF00BF08ED00E0EFF30980B4
:1001B000BFF36F8F0F4B1A6820E9F00F106008B57E
:1001C0004FF0280080F31188BFF34F8FBFF36F8F7C
:1001D00000F013FC4FF0000080F31188BDE80840E8
:1001E00019680868B0E8F00F80F30988BFF36F8FD3
:1001F000704700BF00C00720EFF305807047000084
:1002000070472648006840F400402449C439C1F8CA
:10021000C4002348006E40F0C060214908660846CB
:10022000006840F4800008600846006C40F4FC70F0
:1002300008640846006840F400600860704717488A
:10024000006840F400401549C439C1F8C40014489E
:10025000006E40F0C060124908660846006840F42D
:10026000800008607047FFF7EAFFFFF7CAFF02202F
:1002700000F018F800F01FFD4FF080600849C867D3
:100280000011C861C000C86700BF4FF0806004491A
:1002900088670011C861C0008867F6E7C4C00F40D6
:1002A00000C00920704700000948804709480047FE
:1002B000FEE7FEE7FEE7FEE7FEE7FEE7FEE7FEE716
:1002C000FEE7FEE704480549034A054B7047000076
:1002D000ED160000CD00000070C1072070C307209C
:1002E00070C1072070477047704710B50446AFF3E0
:1002F00000802046BDE81040FFF72FBFFFFFFFFF43
:1003000010B5002407E004EB8401FE4A02EB8100F3
:1003100000F0CCFF641C042CF5D3FB4800F0C6FFB2
:10032000FA4800F0C3FFFA4800F0C0FFF94800F0B7
:10033000BDFFF94800F0BAFFF348F8490860F348F8
:10034000F749086010BD10B5044601F0C5F8F5483E
:100350000068401CF3490860F348006840B9F2485F
:1003600004600846006801280DD1FFF7C9FF0AE0C4
:10037000EE48006838B9EC480068C06AE16A884213
:1003800001D8E9480460EA480068401CE849086070
:1003900094F82C1001208840E64909680843E54993
:1003A0000860E16A01EB8101D64A02EB8100211D60
:1003B00000F08CFF01F09FF8DC48006868B1DA4873
:1003C0000068C06AE16A884207D24FF08050DA497B
:1003D0000860BFF34F8FBFF36F8F10BD2DE9FF5F34
:1003E00080460E469146DDE90E7A109CA9F1010087
:1003F000216B01EB800B2BF0070B86B1002507E08A
:10040000715D04F134004155705D00B902E06D1C6E
:10041000082DF5D300BF00213B20015502E000204C
:1004200084F83400042F00D30327E762201D00F076
:100430004AFF04F1180000F046FF2461C7F10400F0
:10044000A06164620020E06384F8400041465846A1
:10045000039A01F012F82060BAF1000F01D0CAF837
:100460000040BDE8FF9F2DE9FF4F85B080468946DB
:100470001746DDE912ABB80000F077FF064656B12B
:10048000442000F072FF04460CB1266304E03046BD
:1004900000F0BEFF00E000247CB10020CDE900ABFD
:1004A000CDE902403A4649464046089BFFF796FF91
:1004B0002046FFF748FF012501E04FF0FF352846B1
:1004C00009B0BDE8F08F95490968096809B90121AB
:1004D00000E0002121B14FF0FF31984A116006E0A1
:1004E0008E490968C968C868944A416811607047B4
:1004F00010B50446206B00F08BFF204600F088FF0B
:1005000010BD70B5054600F0E7FF15B986480068D4
:1005100000E028460446201D00F0FEFE78B9E06A9F
:1005200000EB8000774951F8200040B994F82C1076
:10053000012088407F49096881437E480160A06AA4
:1005400018B104F1180000F0E7FE79480068401C7B
:100550007749086074480068844209D1211D6D48BC
:1005600000F0B4FE76480068401C7549086009E058
:100570006C480068401E6B4908602046FFF7B8FFD2
:10058000FFF7A1FF00F0B7FF6848006858B1664860
:100590000068844207D14FF0805067490860BFF37C
:1005A0004F8FBFF36F8F70BD2DE9F0410027654875
:1005B0000068002863D164480068451C62480560F3
:1005C0008DB95648D0F800805548006853490860F6
:1005D0005348C0F800805D480068401C5B490860D3
:1005E000FFF771FF00BF5548006885423BD300BF4D
:1005F0004A480068006808B9012000E0002020B1E6
:100600004FF0FF304D4908602CE044480068C06856
:10061000C4686668B54202D24848066022E0201DE0
:1006200000F07AFEA06A18B104F1180000F074FE20
:1006300094F82C10012088403E49096808433D4940
:100640000860E16A01EB81012E4A02EB8100211D65
:1006500000F03CFE3449E06A0968C96A8842C7D3A1
:100660000127C5E700BF30480068C06A00EB800082
:10067000244951F82000012800D9012704E034481A
:100680000068401C324908603248006800B1012708
:100690003846BDE8F08170B50024002600F01CFF4C
:1006A00028480068401E274908600846006800285E
:1006B0007AD11C480068002876D04FE01448C06802
:1006C000C46804F1180000F027FE201D00F024FE8D
:1006D00094F82C10012088401649096808431549F0
:1006E0000860E16A01EB8101064A02EB8100211DED
:1006F00000F0ECFD0C49E06A0968C96A88422DD314
:10070000012029E05CC00720ACC00720C0C0072042
:10071000D4C00720E8C00720FCC0072004C0072081
:1007200008C0072010C0072000C007201CC00720F9
:100730002CC0072018C0072004ED00E030C00720BF
:100740000CC0072038C0072014C0072028C007208D
:1007500020C0072024C00720FE490860FE4800682A
:1007600008B9012000E000200028A7D00CB1FFF755
:10077000AAFEFA48056865B100BFFFF715FF10B182
:100780000120F44908606D1E002DF6D10020F349C8
:100790000860F048006838B101263007F049086069
:1007A000BFF34F8FBFF36F8F00F0A5FE304670BDD3
:1007B0002DE9F04105460E46EA480768EA48006818
:1007C000001D00F0A9FD50B9E748006890F82C1012
:1007D00001208840E54909688143E4480160681CBC
:1007E00038B936B1E0480168091DE14800F06EFDF6
:1007F0001AE07C19DC4800684460BC4207D2DA4841
:100800000168091DDB48006800F06CFD0CE0D6486B
:100810000168091DD848006800F064FDD7480068E9
:10082000844201D2D5480460BDE8F081D448006814
:10083000401CD349086070472DE9F04704468846BC
:100840004FF00009FFF7F2FFC6480668206800EB8A
:1008500008052068B04207D92068A8420BD9B542E4
:1008600009D94FF0010906E02068A84201D8B54235
:1008700001D94FF001092560B9F1000F03D0A81B81
:100880000021FFF795FFFFF706FF07463FB94FF03E
:100890008050B3490860BFF34F8FBFF36F8FBDE83F
:1008A000F08770B50446002544B1FFF7BFFF002173
:1008B0002046FFF77DFFFFF7EEFE05463DB94FF0FE
:1008C0008050A7490860BFF34F8FBFF36F8F70BD93
:1008D00070B5044600F000FE14B9A348006800E0BB
:1008E00020460646F56A00F006FE284670BD70B543
:1008F000024600BF2825EFF3118485F31188BFF36A
:100900004F8FBFF36F8F00BF214612B9964C2468FA
:1009100000E014462346D86A00BF81F3118800BF67
:1009200070BD2DE9F04780460D464FF00009042DBB
:1009300000D3032500F0D0FDB8F1000F02D18A48A2
:10094000006800E040460446E66AAE4251D0B54237
:100950000BD98548006884420DD083480068C06A7E
:10096000A84208D84FF0010905E07F48006884429A
:1009700001D14FF00109E76AE562A06900F000408B
:1009800010B9C5F10400A06107EB87017D4A02EBB5
:1009900081016069884201D1012000E00020E0B1BE
:1009A000201D00F0B9FC30B90120B8406F4909683A
:1009B00081436E48016094F82C10012088406B49F7
:1009C0000968084369490860E16A01EB81016D4AE1
:1009D00002EB8100211D00F079FCB9F1000F07D076
:1009E0004FF080505E490860BFF34F8FBFF36F8FA9
:1009F00000BF00F080FDBDE8F0876148006818B1D5
:100A00000120544908601DE0002052490860574801
:100A10000068B0FA80F0C0F11F0101EB8102594B70
:100A200003EB820042685268426000F108024368AA
:100A3000934202D14268526842604268D2684A4B8F
:100A40001A6000BF704770B5054600F045FD15B946
:100A50004548006800E028460446201D00F05CFC84
:100A600078B9E06A00EB8000464951F8200040B9AF
:100A700094F82C10012088403C49096881433B4888
:100A80000160A06A18B104F1180000F045FC211DB6
:100A9000374800F01BFC94F84000012802D10020E8
:100AA00084F8400000F027FD3748006828B100F0C6
:100AB00013FDFFF708FD00F01EFD2B48006884427F
:100AC00017D13148006840B14FF080502449086088
:100AD000BFF34F8FBFF36F8F0BE0254800682B49A2
:100AE0000968884203D100201F49086001E0FFF730
:100AF00084FF70BD10B5014600200A461C4C5369A6
:100B0000A34201D1012300E0002373B1124C936A88
:100B1000A34201D1012300E0002333B9936A0BB94A
:100B2000012300E0002303B1012010BD70B505468C
:100B30002C460D48006884424DD04CB300F0CCFCEC
:100B40002046FFF7D7FFE8B3201D00F0E5FB94F83F
:100B50002C101EE024C00720D4C0072020C007208E
:100B600004ED00E014C0072000C0072018C00720D3
:100B7000FCC0072008C0072004C0072030C00720A1
:100B800038C007205CC007201CC0072010C0072009
:100B900021E001208840FE4909680843FC490860BB
:100BA000E16A01EB8101FB4A02EB8100211D00F0AB
:100BB0008DFBF949E06A0968C96A884209D34FF098
:100BC000805000E005E0F5490860BFF34F8FBFF3A8
:100BD0006F8F00F090FC70BD2DE9F04106460027B4
:100BE000344600BF2821EFF3118081F31188BFF351
:100BF0004F8FBFF36F8F00BF05462046FFF77AFF88
:100C000020B3E7480068E0B9E349E06A0968C96AC7
:100C1000884200D30127201D00F07EFB94F82C10A1
:100C200001208840DA4909680843D9490860E16A27
:100C300001EB8101D74A02EB8100211D00F046FB48
:100C400004E004F11801D74800F040FB00BF85F331
:100C5000118800BF3846BDE8F08110B516E000F0FD
:100C60003BFCD148C068C468201D00F055FBCF484C
:100C70000068401ECD490860CD480068401ECC4940
:100C8000086000F038FC2046FFF732FCC8480068D6
:100C90000028E4D110BD00BFFFF7DFFFBD480068AA
:100CA0000128F9D94FF08050BC490860BFF34F8F3D
:100CB000BFF36F8FF0E71CB5BE4800210B465A22E8
:100CC000CDE90010BCA1BE48FFF7CDFB0446012CC6
:100CD00014D100BF282080F31188BFF34F8FBFF3DA
:100CE0006F8F00BF4FF0FF30B64908600120B64952
:100CF00008600020B549086000F0D8FB1CBD10B5A5
:100D000000BF282080F31188BFF34F8FBFF36F8F90
:100D100000BF0020AC49086000F0DDFB10BDAB490E
:100D2000086870470021A94A106870479F4800680A
:100D30007047014611B99848006800E0084602462D
:100D400002F13400704770B505460C4692480168C0
:100D50001831284600F0C6FA01212046FFF728FD89
:100D600070BD70B506460C46154644F000408A49F1
:100D700009688861884801681831304600F0A6FA91
:100D800001212846FFF714FD70BD70B50646F068D6
:100D9000C46804F1180000F0BFFA81480068A8B9DF
:100DA000201D00F0B9FA94F82C10012088407849F1
:100DB0000968084376490860E16A01EB8101754AD8
:100DC00002EB8100211D00F081FA04E004F118011A
:100DD000744800F07BFA7049E06A0968C96A884281
:100DE00004D9012501207A49086000E00025284641
:100DF00070BD70B505460E4646F000402860EC68B0
:100E0000284600F089FA201D00F086FA94F82C108C
:100E1000012088405E49096808435D490860E16A2D
:100E200001EB81015B4A02EB8100211D00F04EFACB
:100E30005949E06A0968C96A884202D901206449AF
:100E4000086070BD10B5044600F046FB61480068BC
:100E500020605E480068606000F04DFB10BD5D4999
:100E600009680160594909684160704770B50646D4
:100E70000C4600F031FB554802687068131A206870
:100E8000401C08B9002517E05249306809688842BB
:100E900004D07068904201D801250DE02068984286
:100EA00007D92068C01A20603046FFF7D8FF002518
:100EB00002E000202060012500F01DFB284670BDE7
:100EC00001204349086070473349096888693249FD
:100ED0000968C96AC1F104012F4A1268916170471B
:100EE00070B506460D4600F0F7FA2B480068C06B57
:100EF00088B901202849096881F840005DB10121C5
:100F00002846FFF755FC4FF0805024490860BFF396
:100F10004F8FBFF36F8F00F0EEFA00F0DDFA1E483E
:100F20000068C46B4CB126B100201B490968C86336
:100F300003E0601E18490968C86300201649096863
:100F400081F8400000F0D7FA204670BD2DE9F0414D
:100F50000746884614461D4600F0BEFA0E48006853
:100F600090F8400002283ED00B49096801F13C008E
:100F7000C96BB943016001200749096881F8400045
:100F800055B301212846FFF713FC4FF0805024E0B1
:100F900018C007205CC0072000C0072004ED00E057
:100FA00038C00720D4C00720E8C0072010C00720A1
:100FB0000CC0072034C0072049444C450000000005
:100FC000970C000030C007201CC0072014C0072069
:100FD00024C0072028C0072005E0AD490860BFF302
:100FE0004F8FBFF36F8F00F086FA00F075FA1CB1D7
:100FF000A8480068C06B2060A648006890F84000D0
:10100000022801D0002608E0A249096801F13C004D
:10101000C96B21EA08010160012600209D49096889
:1010200081F8400000F067FA3046BDE8F0812DE914
:10103000F04781460D4616461F464FF0010A4C46C2
:1010400000F04AFA0FB1E06B386094F8408002205B
:1010500084F84000052E17D2DFE806F01503070BD1
:101060000D00E06B2843E0630FE0E06B401CE063A1
:101070000BE0E56309E0B8F1020F01D0E56301E0A0
:101080004FF0000A01E000E000BF00BFB8F1010F1F
:1010900022D1201D00F040F994F82C100120884046
:1010A0007D49096808437C490860E16A01EB8101D8
:1010B0007A4A02EB8100211D00F008F97549E06AC7
:1010C0000968C96A884207D94FF0805070490860A2
:1010D000BFF34F8FBFF36F8F00F00DFA5046BDE89E
:1010E000F0872DE9F84F82460D4616461F46DDF87B
:1010F00028B001200090544600BF2821EFF3118052
:1011000081F31188BFF34F8FBFF36F8F00BF81460C
:101110000FB1E06B386094F84080022084F8400002
:10112000052E17D2DFE806F01503070B0D00E06B64
:101130002843E0630FE0E06B401CE0630BE0E563F5
:1011400009E0B8F1020F01D0E56301E00020009052
:1011500001E000E000BF00BFB8F1010F2CD1504802
:101160000068A8B9201D00F0D7F894F82C100120D1
:10117000884049490968084347490860E16A01EB2A
:101180008101464A02EB8100211D00F09FF804E036
:1011900004F11801434800F099F83E49E06A0968F3
:1011A000C96A884208D9BBF1000F02D00120CBF8F0
:1011B000000001203C49086000BF89F3118800BF8E
:1011C0000098BDE8F88F2DE9F04105460E462C4603
:1011D00000BF2821EFF3118081F31188BFF34F8FF7
:1011E000BFF36F8F00BF074694F84080022084F859
:1011F0004000E06B401CE063B8F1010F29D12848A2
:101200000068A8B9201D00F087F894F82C10012080
:1012100088402149096808431F490860E16A01EBD9
:1012200081011E4A02EB8100211D00F04FF804E00D
:1012300004F118011B4800F049F81649E06A0968F2
:10124000C96A884205D90EB10120306001201649D3
:10125000086000BF87F3118800BFBDE8F08170B55A
:10126000054615B90B48006800E02846064600F020
:1012700033F996F84000022804D1002086F8400097
:10128000012400E0002400F036F9204670BD000083
:1012900004ED00E000C0072018C007205CC0072054
:1012A00038C00720D4C0072024C0072000F108015F
:1012B00041604FF0FF31816000F10801C1600161C0
:1012C00000210160704700210161704742684A6057
:1012D00093688B60936859609160086103685B1C38
:1012E0000360704710B502460B685C1C0CB91069AE
:1012F00007E002F1080000E04068446824689C426E
:10130000FAD944684C604C68A160886041600A6109
:101310001468641C146010BD01460A69D1E90130EB
:101320009860D1E9010358605068884201D188680B
:101330005060002008611068401E106010687047FF
:10134000434A22F00700434A10600022414B5A6092
:1013500042F6F872404B5A6000221A60014642F68B
:10136000F8724A601A460A6070472DE9F041044657
:101370004FF00008FFF75AFA3848006820B9FFF725
:10138000DFFF01203549086044B1083404F007004C
:1013900020B104F00700C0F108000444002C32D052
:1013A00042F6F87084422ED22A4F3846056801E092
:1013B0002F462D686868A04202D228680028F7D11D
:1013C000254885421FD0386800F108082868386031
:1013D0006868001B102810D92E196868001B7060FF
:1013E0006C6071681B4800E00068026852688A42BD
:1013F000FAD302683260066000BF1949686809685C
:10140000081A17490860FFF746F94046BDE8F08121
:1014100070B506463546B6B1083D2C46FFF706FACC
:1014200061680C4800E00068026852688A42FAD39A
:101430000268226004600A49606809680844084933
:101440000860FFF728F970BD0548006870477047CD
:10145000080000103CC0072044C0072050C00720EF
:101460004CC0072000BF282080F31188BFF34F8FA6
:10147000BFF36F8F00BF00BFFEE7001F4FF0807308
:101480000360001F21F001030360001F2D4B036068
:10149000143802602038704700204FF0E0210861C6
:1014A00088612948486107200861704710B52748BE
:1014B000006840F47800254908600846006840F05C
:1014C00078400860FFF7E8FF002021490860FEF738
:1014D0005DFE002010BD704700BF282080F31188FA
:1014E000BFF34F8FBFF36F8F00BF19480068401CD8
:1014F00017490860704716480068401E1449086084
:101500000846006820B9002080F3118800BF00BFA2
:10151000704710B500BF282080F31188BFF34F8FAC
:10152000BFF36F8F00BFFFF73FF820B14FF080503F
:1015300006491C39086000BF002080F3118800BFF5
:1015400010BD0000651400009F86010020ED00E042
:1015500054C007202DE9F047B3480068C0F301608C
:1015600003287DD1B0488430006800F0030030B11A
:10157000012830D0022859D003282BD100E000BF29
:10158000A9480068C0F30740441C0221A6488838D7
:10159000D0F88800C0F30E00401CA1FB0001A34B53
:1015A0004FF0000CA0FB037901FB039100FB0C1131
:1015B00022466346384600F045F905469A487C3095
:1015C0000068C0B2441C22460023284600F03AF9C5
:1015D0009749086056E094480068C0F30740441CEF
:1015E000022191488838D0F88800C0F30E00401CD2
:1015F000A1FB00108F4A4FF0000CA1FB027900FB09
:10160000029001FB0C0122466346384600F01AF9AD
:10161000054685487C300068C0B2441C2246002341
:10162000284600F00FF9824908602BE07E480068E8
:10163000C0F30740441C02217B488838D0F888005A
:10164000C0F30E00401CA1FB00124FF40040002329
:10165000A1FB007902FB009001FB0301224600E0A0
:1016600011E0384600F0EEF805466F487C3000681F
:10167000C0B2441C22460023284600F0E3F86C491F
:10168000086000BF30E068488430006800F0030064
:1016900030B1012810D0022819D0032823D100E04E
:1016A00000BF61487C300068C0B2401C5F49B1FB9C
:1016B000F0F05F49086016E05B487C300068C0B21B
:1016C000401C5C49B1FBF0F0594908600BE05648FA
:1016D0007C300068C0B2401C4FF40041B1FBF0F018
:1016E0005349086000BF00BFBDE8F0872020524981
:1016F00008604D488838D0F8A00100F0200030B1D3
:1017000000BF4D48006800F040000028F9D00320D9
:1017100045497C310860002043498839C1F8A80157
:1017200045490C31086001203F4984310860434835
:101730003D49091F0860AA203B49091D0860552042
:1017400008600120384908390860AA203649091D77
:101750000860552034498839C1F88C0000BF3248F0
:10176000006800F080600028F9D003202E49083975
:101770000860AA202C498839C1F88C0055202A49D4
:10178000091D086000BF2848006800F04070B0F1F3
:10179000407FF8D1232024491C310860AA20224927
:1017A0008839C1F8AC0055201F4924310860012058
:1017B0001D4918310860AA201B49243108605520B2
:1017C00019498839C1F8AC0000BF174820300068BB
:1017D00000F480600028F8D0032013491831086015
:1017E000AA2011498839C1F8AC0055200E4924318E
:1017F000086000BF0C482030006800F44070B0F56D
:10180000407FF7D10E4808493C3108600020064966
:101810008839C1F8C8010846006820F4704040F4D7
:10182000804008607047000088C00F4000093D00FC
:1018300058C00720001BB700A0C10F40630005007F
:10184000DE87280453EA020C00F069802DE9F04B92
:101850004FF00006002B1FBFB3FA83F503FA05F41F
:1018600024FA05F65E4012BF1643B2FA82F502FA78
:1018700005F4C5F120051EBF22FA05FC44EA0C045C
:10188000203556EA044C4FEA144418BF641C4FF04C
:1018900000084FF00009904271EB030C39D3002986
:1018A00019BFB1FA81F701FA07F6B0FA80F700FA2A
:1018B00007F6C7F120071EBF20FA07FC46EA0C0610
:1018C0002037B6FBF4FCA7EB0507103F07F01F0B12
:1018D000CBF120060CFA0BFB2CFA06F644BFB346FC
:1018E0000026202FA4BF5E464FF0000B5BEA060CDB
:1018F00008BF4FF0010B19EB0B09ABFB027C48EB67
:101900000608C01B06FB02CC0BFB03CC71EB0C01E1
:10191000C1E70B46024641464846BDE8F08B13B589
:101920004FF000004FF00001AFF30080BDE81C4015
:101930007047754600F022F8AE46050069465346EA
:1019400020F00700854618B020B5FEF7BBFCBDE8C7
:1019500020404FF000064FF000074FF000084FF016
:10196000000B21F00701AC46ACE8C009ACE8C009A7
:10197000ACE8C009ACE8C0098D4670470048704724
:1019800010C1072001491820ABBEFEE72600020067
:1019900070470000C419000000C007205C00000070
:1019A00008010000C4190000000000100030000011
:1019B00024010000201A00005CC00720140300006E
:1019C00024010000000000000000000000000000F2
:1019D0000000000000000000000000000000000007
:1019E00000000000000000000000000000000000F7
:1019F00000000000000000000000000000000000E7
:101A000000000000000000000000000000000000D6
:101A1000F82F000000000000AAAAAAAA00E1F5051C
:04000005000000CD2A
:00000001FF
